:100000001123D2B4110880F8758906758C00758AA1
:1000100000D28CE58A11611138308DF7C28DC28C07
:1000200080EF2274381154740E11547401115474F9
:10003000061154740E11542274821154EC1178116B
:100040008574831154EA1178118574841154EB116D
:1000500078118522F590C2A0C2A1D2A21185C2A2B8
:100060002275F00A84AAF075F00A844430FCE5F0A9
:100070004430FBEA7430FA22F590D2A0C2A1D2A299
:0E0080001185C2A2227EFA7FFADEFEDFFE228A
:00000001FF
