:1000000074381164740E1164740111647404116401
:10001000740E11647489116474481171117E7487AF
:10002000116474451171117E74851164744C1171E1
:10003000117E74831164744C1171117E748111648A
:10004000744F1171117E74C7116474551171117E52
:1000500074C5116474451171117E74C311647454B4
:100060001171117EF590C2A0C2A1D2A2117EC2A2CE
:1000700022F590D2A0C2A1D2A2117EC2A2227EFA03
:070080007FFADEFEDFFE2225
:00000001FF
