:1000000074381164740E11647401116474061164FF
:10001000740E11647482116474481171117E7484B9
:10002000116474451171117E74861164744C1171E0
:10003000117E74881164744C1171117E748A11647C
:10004000744F1171117E74C4116474551171117E55
:1000500074C6116474451171117E74C811647454AE
:100060001171117EF590C2A0C2A1D2A2117EC2A2CE
:1000700022F590D2A0C2A1D2A2117EC2A2227EFA03
:070080007FFADEFEDFFE2225
:00000001FF
